:020000040800F2
:1080000000500020694B0108A94B0108A94B010849
:10801000A94B0108A94B0108A94B01080000000069
:10802000000000000000000000000000A94B010853
:10803000A94B010800000000A94B0108A94B010849
:10804000A94B0108A94B0108A94B0108A94B01083C
:10805000A94B0108A94B01083D040108410401088E
:1080600045040108490401084D040108A94B010811
:10807000A94B0108A94B0108A94B0108A94B01080C
:10808000A94B0108A94B0108A94B010877FD00087D
:1080900073FD0008A94B0108A94B01085104010810
:1080A000A94B0108A94B0108A94B0108A94B0108DC
:1080B000A94B0108A94B0108A94B0108A94B0108CC
:1080C000A94B0108A94B0108A94B0108A94B0108BC
:1080D000A94B010825090108A94B0108A94B010872
:1080E00079040108A94B01087BFD0008000000008D
:1080F0000000000000000000000000000000000080
:0C81000000000000000000005FF808F123
:10811000EFF309800046704780F309887047EFF35A
:1081200008800046704780F308887047EFF312809C
:10813000704780F311887047EFF31080704780F329
:1081400010887047EFF31380704780F313887047EF
:10815000EFF31480704780F31488704700BA7047BB
:1081600040BA7047C0BA704790FAA0F07047D0E8A4
:108170004F0FC0B27047D0E85F0F80B2704750E831
:10818000000F7047C1E8430F18467047C1E8530F0E
:108190001846704741E800007047000040F0BF609B
:1081A000024B40F40030D860704700BF00ED00E0A3
:1081B000C27810B50378FAB1154A4478D26803F151
:1081C0006043D243C2F30222C2F1040104FA01F176
:1081D0000F2424FA02F2847803F5614322400A4313
:1081E0001201D2B283F8002303780122590903F067
:1081F0001F0302FA03F306E05909012203F01F03EB
:1082000002FA03F32031034A42F8213010BD00BFC7
:1082100000ED00E000E100E021F0604121F07F018D
:10822000014B08439860704700ED00E0044B1A6969
:1082300009B1104301E022EA00001861704700BF55
:1082400000ED00E0044B04281A680CBF42F0040261
:1082500022F004021A60704710E000E0036823F087
:10826000010303600023036043608360C3602A4B03
:10827000984222D0294B984229D0294B984230D09D
:10828000284B984237D0284B98423ED0274B9842F3
:1082900006D153F8682C42F4700243F8682C7047FA
:1082A000234B984206D153F87C2C42F0706243F87D
:1082B0007C2C70471F4B984206D153F8042C42F097
:1082C0000F0243F8042C70471B4B984206D153F819
:1082D000182C42F0F00243F8182C7047174B9842C4
:1082E00006D153F82C2C42F4706243F82C2C7047C2
:1082F000134B984206D153F8402C42F4704243F895
:10830000402C70470F4B984205D153F8542C42F43F
:10831000702243F8542C7047080002401C000240B1
:108320003000024044000240580002406C0002400D
:1083300080000240080402401C0402403004024055
:10834000440402405804024070B58C680D6A066807
:1083500045EA04020C698B6A22434C6926F4FF4605
:1083600022438C6926F070062243CC6914434A6A82
:108370002243134333430360CB6843600B6883603D
:108380004B68C36070BD0023036043608360C360BB
:10839000036143618361C361036243628362704727
:1083A000036811B143F0010301E023F0010303600E
:1083B000704703680AB1194301E023EA0101016033
:1083C0007047406880B27047C3004CBF034B044BFA
:1083D0001B6803420CBF00200120704700040240CC
:1083E00000000240C2004CBF014B024B5860704776
:1083F0000004024000000240C1004CBF034B044B8C
:108400001B6803420CBF002001207047000402409B
:1084100000000240C3004CBF014B024B5860704744
:10842000000402400000024008B5234B984205D1E9
:108430000420012100F066FA042036E01F4B984228
:1084400005D10820012100F05DFA08202DE01C4B29
:10845000984205D11020012100F054FA102024E0A8
:10846000184B984205D12020012100F04BFA202022
:108470001BE0154B984205D14020012100F042FA43
:10848000402012E0114B984205D18020012100F0DC
:1084900039FA802009E00E4B98420BD14FF48070DE
:1084A000012100F02FFA4FF480700021BDE8084050
:1084B00000F028BA08BD00BF00080140000C0140D0
:1084C000001001400014014000180140001C014050
:1084D0000020014008B50120014600F013FABDE874
:1084E00008400120002100F00DBACB78F0B5DA0683
:1084F00048BF8A78098803F00F0548BF154311F07B
:10850000FF0F1DD0046800220127974007EA0106EB
:10851000BE4211D197004FF00F0C0CFA07FC05FA80
:1085200007F724EA0C04282B44EA070401D146612A
:1085300002E0482B08BF06610132082AE4D104603A
:10854000FF291FD94468002202F108060127B7401D
:1085500007EA0106BE4211D197004FF00F0C0CFA4A
:1085600007FC05FA07F724EA0C04282B44EA070461
:1085700001D1466102E0482B08BF06610132082A9A
:10858000E2D14460F0BD4FF6FF7303800223837095
:108590000423C3707047836819420CBF0020012078
:1085A0007047806880B27047C36819420CBF0020D2
:1085B00001207047C06880B2704701617047416117
:1085C00070470AB10161704741617047C1607047EF
:1085D00041F480338361816183618369836970477A
:1085E000054A10B514684FF680732340194341EAD9
:1085F0000010106010BD00BF00000140014B18606A
:10860000704700BF1C0020420028164A30B500F415
:108610004015B4BFD3695368B5F5401F84B206D185
:10862000556823F0706325F0706555600FE0C50252
:1086300005D5C0F30342032505FA02F203E0420D1B
:10864000120104FA02F223EA020343F0706319B143
:10865000420D120194402343024A0028B4BFD36163
:10866000536030BD0000014001F003039B000F2266
:108670009A40984001F0FC0101F1804101F5803100
:1086800010B58C6824EA02028A608A6802438A6014
:1086900010BD014B18607047DC0020420D4B1A687A
:1086A00042F001021A6059680B4A0A405A601A687F
:1086B00022F0847222F480321A601A6822F4802236
:1086C0001A605A6822F4FE025A604FF41F029A6040
:1086D000704700BF001002400000FFF80C4BB0F5DF
:1086E000803F1A6822F480321A601A6822F48022CD
:1086F0001A6003D0B0F5802F04D070471A6842F496
:10870000803202E01A6842F4A0221A60704700BF6B
:1087100000100240034B1A6822F0F80242EAC0003F
:108720001860704700100240014B1860704700BF8E
:1087300000004242034B5A6822F47C121143084362
:108740005860704700100240014B1860704700BF2E
:1087500060004242034B5A6822F003021043586003
:10876000704700BF00100240024B586800F00C0038
:10877000704700BF00100240034B5A6822F0F0021D
:1087800010435860704700BF00100240034B5A6806
:1087900022F4E06210435860704700BF00100240AE
:1087A000034B5A6822F4605242EAC0005860704796
:1087B00000100240044B1A7809B1104301E022EA8C
:1087C00000001870704700BF09100240014B18608C
:1087D000704700BFD8004242034B5A6822F440421F
:1087E00010435860704700BF00100240064B002243
:1087F00001281A701A7002D0042802D0704718702D
:10880000704705221A70704720100240014B186013
:10881000704700BF80044242024B1A6A104318623C
:10882000704700BF00100240014B1860704700BF46
:108830003C0442421D4B10B55A6802F00C02042A57
:1088400001D0082A02D01A4B03600FE05A68596819
:10885000C2F38342C90302F1020202D55B689B03A3
:1088600001D5144B00E0124B5A4302600F4A124BE1
:108870005168C1F303115C5C0168E14041605468D8
:10888000C4F302241C5D21FA04F484605468C4F328
:10889000C2241C5DE140C1605268C2F381321344BE
:1088A0001B7CB1FBF3F1016110BD00BF0010024061
:1088B00000127A0000093D0000000020044B5A69B4
:1088C00009B1104301E022EA00005861704700BF7F
:1088D00000100240044B9A6909B1104301E022EAFA
:1088E00000009861704700BF00100240044BDA6935
:1088F00009B1104301E022EA0000D861704700BFCF
:1089000000100240044BDA6809B1104301E022EA8A
:108910000000D860704700BF00100240044B1A6985
:1089200009B1104301E022EA00001861704700BF5E
:1089300000100240014B1860704700BF40044242E3
:10894000014B1860704700BF4C004242014B187049
:10895000704700BF071002404309012B074A01D1AD
:10896000136803E0022B0CBF136A536A00F01F0068
:1089700023FA00F000F00100704700BF0010024031
:1089800007B5002301933120FFF7E6FF019B013378
:108990000193019BB3F5A06F01D00028F3D03120E3
:1089A000FFF7DAFF003018BF012003B05DF804FBC9
:1089B000024B5A6A42F080725A62704700100240BD
:1089C000034B9B6818420CBF00200120704700BF7A
:1089D00000100240014B1870704700BF0A1002409F
:1089E00008B5154B98420BD14FF480500121FFF789
:1089F00089FFBDE808404FF480500021FFF782BF97
:108A00000E4B984207D14FF480400121FFF786FFBB
:108A10004FF4804009E00A4B98420BD14FF40040DC
:108A20000121FFF77BFF4FF400400021BDE8084023
:108A3000FFF774BF08BD00BF0030014000380040A0
:108A4000003C00400B8810B54C88028823438C887A
:108A500002F441522343CC8823430C8923434C899D
:108A600023438C892343CC89234313439BB2038044
:108A7000838B23F400631B041B0C83830B8A038208
:108A800010BD838BF0B523F47B6323F00F031B042D
:108A90001B0C8383022303848B68868B022B87B095
:108AA00005460C46B6B223D001A88F88FFF7C2FE58
:108AB000E388002F14BF022701270199B3F5007F37
:108AC00018BF7F014FF00A030CBF090AB1FBF7F191
:108AD0004B43A268B3FBF2F305330A229BB2B3FB0C
:108AE000F2F303F001021202C3F34F0392B200E06B
:108AF0000022991E89B2FE2928BF0022E18828BFE2
:108B0000022313430B439BB22B8423886288334395
:108B100043F400631343A2881343A28913439BB217
:108B2000AB8307B0F0BD0023038043808380C38004
:108B3000038143818381C38107230382704700231C
:108B40000222038043808380C380826083817047D8
:108B5000038819B19BB243F0400303E023F04003C4
:108B60001B041B0C03807047838B19B19BB243F429
:108B7000806303E023F480631B041B0C8383704732
:108B8000090901238B409BB21AB1828892B2134328
:108B900003E0828892B222EA0303838070478388CD
:108BA0009BB20AB1194301E023EA010181807047B9
:108BB00081817047808980B270474FF6FF63994288
:108BC000038803D09BB243F4807303E023F48073E3
:108BD0001B041B0C03807047838819B19BB243F0C0
:108BE000040303E023F004031B041B0C8380704781
:108BF000038823F400631B041B0C038003889BB2CF
:108C000019430180704703889BB243F4805303806B
:108C10007047038819B19BB243F4005303E023F477
:108C200000531B041B0C03807047012914BF008BE9
:108C3000808A80B27047008A80B27047B1F5804F59
:108C4000038803D19BB243F4804303E023F48043C1
:108C50001B041B0C03807047038919420CBF0020C2
:108C600001207047C94389B20181704701F00F02AA
:108C7000012303FA02F210B584880089A4B280B2FD
:108C8000104005D009098B401C420CBF0020012078
:108C900010BD01F00F0101238B40DB439BB2038128
:108CA000704700BF30B5048C24F001042404240C68
:108CB0000484058B048CADB225F0F305A4B22A43DD
:108CC00024F0020442EA031344F001049DB221435C
:108CD0000583018430BD30B5048C24F010042404D5
:108CE000240C0484048B058C24F44074ADB2240558
:108CF000240D25F0200545F0100544EA022242EA41
:108D0000033345EA01119BB28DB20383058430BD64
:108D100008B55A4B984207D14FF400600121FFF784
:108D2000F1FD4FF40060A2E0B0F1804F05D10120C9
:108D30000146FFF7F3FD012007E0514B984209D1AE
:108D400002200121FFF7EAFD02200021BDE80840D2
:108D5000FFF7E4BD4B4B984205D104200121FFF7FA
:108D6000DDFD0420F1E7484B984205D108200121A0
:108D7000FFF7D4FD0820E8E7444B984205D11020C6
:108D80000121FFF7CBFD1020DFE7414B984205D1D1
:108D900020200121FFF7C2FD2020D6E73D4B98425D
:108DA00007D14FF400500121FFF7ACFD4FF4005004
:108DB0005DE0394B984207D14FF400200121FFF7C5
:108DC000A1FD4FF4002052E0344B984207D14FF4FC
:108DD00080100121FFF796FD4FF4801047E0304BE3
:108DE000984207D14FF400100121FFF78BFD4FF49B
:108DF00000103CE02B4B984205D140200121FFF7A9
:108E00008DFD4020A1E7284B984205D1802001210B
:108E1000FFF784FD802098E7244B984207D14FF458
:108E200080700121FFF77AFD4FF480708DE7204BB1
:108E3000984207D14FF480300121FFF763FD4FF4D2
:108E4000803014E01B4B984207D14FF400300121D1
:108E5000FFF758FD4FF4003009E0174B98420BD153
:108E60004FF480200121FFF74DFD4FF480200021B9
:108E7000BDE80840FFF746BD08BD00BF002C01401B
:108E80000004004000080040000C004000100040BA
:108E90000014004000340140004C014000500140EB
:108EA0000054014000180040001C00400020004019
:108EB000004001400044014000480140224A03882C
:108EC00090429BB212D002F5006290420ED0B0F1F7
:108ED000804F0BD0A2F59832904207D002F5806205
:108EE000904203D002F58062904203D14A8823F079
:108EF00070031343154A904208D002F580629042F5
:108F000004D023F44073CA889BB2134303808B8838
:108F100083850B8803850C4B98420FD003F50063C3
:108F200098420BD003F54063984207D003F5806365
:108F3000984203D003F58063984201D10B7A0386EF
:108F400001238382704700BF002C014000100040C5
:108F5000038C70B523F001031B041B0C0384038CEA
:108F60008488028B0D8822F073021204120C2A43AB
:108F70004E880D8923F002031B043543ADB21B0C50
:108F80002B43144DA4B2A8420FD005F50065A842AA
:108F90000BD005F54065A84207D005F58065A842CD
:108FA00003D005F58065A8420ED14D8923F0080352
:108FB0002B438D8823F004032B43CE898D8924F421
:108FC00040743543ADB22C4384800283CA888286C4
:108FD000038470BD002C0140038C30B523F01003D6
:108FE0001B041B0C0384038C8288048B0D8824F4DF
:108FF000E6442404240C23F0200344EA05241B0443
:109000000D891B0C43EA05134D8892B243EA051300
:10901000124DA4B2A8429BB203D005F50065A84248
:1090200015D14D8923F080039BB243EA05134FF617
:10903000BF751D408B8822F4406245EA03138D8979
:109040009BB242EA8502CD8942EA850292B28280D1
:10905000CA8804830287038430BD00BF002C01400E
:10906000038C30B523F480731B041B0C0384038C26
:109070008288848B0D8824F073042404240C23F448
:1090800000732C431B040D891B0C43EA05234D88F8
:1090900092B243EA0523124D9BB2A84203D005F5D4
:1090A0000065A84215D14D8923F400639BB243EAC1
:1090B00005234FF6FF351D408B8822F4405245EAC8
:1090C00003238D899BB242EA0512CD8942EA05123B
:1090D00092B28280CA8884838287038430BD00BFB5
:1090E000002C0140038C30B523F480531B041B0C6F
:1090F0000384038C8488828B0D8822F4E642120458
:10910000120C23F4005342EA05221B040D891B0CA8
:1091100043EA05334D88A4B243EA05330A4D92B2BF
:10912000A8429BB203D005F50065A84205D18D8900
:1091300024F4804444EA8514A4B284808283CA88DB
:10914000A0F84020038430BD002C01404A880B88E1
:1091500013438A881343CA8813430A8913434A89ED
:1091600013438A8913439BB2A0F8443070474FF6EB
:10917000FF73838000230380C380438003727047A2
:109180000023038043808380C380038143818381E4
:10919000C381704700230122038043808280C38003
:1091A000038170470023038043808380C380038151
:1091B000438183817047038819B19BB243F0010357
:1091C00003E023F001031B041B0C03807047B0F87D
:1091D000443029B16FEA43436FEA53439BB201E045
:1091E000C3F30E03A0F84430704783899BB20AB1E1
:1091F000194301E023EA01018181704781827047B0
:109200000A43A0F84820704783899BB20AB11943EA
:1092100001E023EA010181817047038923F00703FC
:109220001B041B0C03817047038923F070031B048C
:109230001B0C1943018103899BB243F0070303818F
:10924000704738B50D46602D114604464FF00102B7
:1092500002D1FFF740FD01E0FFF724FD238923F051
:1092600070031B041B0C2B43238123899BB243F007
:109270000703238138BD10B50489E4B221430A43B2
:1092800042EA03239CB2048110BD10B50446FFF7E7
:10929000F2FF238923F077031B041B0C43F07703B1
:1092A000238110BD10B50446FFF7E5FF23899BB26B
:1092B00043F48043238110BD018582827047038877
:1092C00023F070031B041B0C1943018070470389B2
:1092D00023F070031B041B0C19430181704770B508
:1092E0000589048B068C24F44074B6B224F0030480
:1092F00026F0220625F00705240432432D04240C11
:109300002D0C44F4807442EA0313294344F0010411
:109310009EB201810483068470BD038B23F0700329
:109320001B041B0C194301837047038B23F4E04398
:109330001B041B0C43EA01218BB203837047838B10
:1093400023F070031B041B0C194381837047838B2C
:1093500023F4E0431B041B0C43EA01218BB28383FB
:109360007047038819B19BB243F0800303E023F0F8
:1093700080031B041B0C03807047838819B19BB2C8
:1093800043F0040303E023F004031B041B0C83805D
:109390007047838819B19BB243F0080303E023F0C0
:1093A00008031B041B0C83807047838819B19BB290
:1093B00043F0010303E023F001031B041B0C838033
:1093C0007047038B23F008031B041B0C1943018314
:1093D0007047038B23F400631B041B0C43EA012139
:1093E0008BB203837047838B23F008031B041B0C91
:1093F000194381837047838B23F400631B041B0C88
:1094000043EA01218BB283837047038B23F004036B
:109410001B041B0C194301837047038B23F48063E7
:109420001B041B0C43EA01218BB203837047838B1F
:1094300023F004031B041B0C194381837047838BA7
:1094400023F480631B041B0C43EA01218BB283834A
:109450007047038B23F080031B041B0C194301830B
:109460007047038BC3F30E0343EA01218BB20383DE
:109470007047838B23F080031B041B0C19438183EB
:109480007047838BC3F30E0343EA01218BB28383BE
:109490007047038C23F002031B041B0C1943018447
:1094A0007047038C23F008031B041B0C1943018431
:1094B0007047038C23F020031B041B0C43EA0111AB
:1094C0008BB203847047038C23F080031B041B0CB6
:1094D00043EA01118BB203847047038C23F40073B9
:1094E0001B041B0C43EA01218BB203847047038CDD
:1094F00023F400631B041B0C43EA01218BB2038499
:109500007047038C23F400531B041B0C43EA013106
:109510008BB20384704701238B408A4010B5048CC2
:10952000A4B224EA03030384038C13439BB2038491
:1095300010BD04238B408A4010B5048CA4B224EAE9
:1095400003030384038C13439BB2038410BD30B523
:1095500001248C40058C00F11803ADB225EA040407
:10956000048421F0080030B94908585820F07000F0
:109570005850585809E00439C1F34E01C858120236
:1095800020F4E040C850C85892B20243CA5030BDDF
:10959000038819B19BB243F0020303E023F00203F6
:1095A0001B041B0C03807047038819B19BB243F066
:1095B000040303E023F004031B041B0C0380704727
:1095C000838819B19BB243F0800303E023F080034A
:1095D0001B041B0C83807047038823F008031B04C3
:1095E0001B0C038003889BB219430180704783885A
:1095F00023F070031B041B0C838083889BB21943E8
:1096000081807047038923F007031B041B0C03812F
:1096100003899BB2194301817047038923F08003BA
:109620001B041B0C038103899BB219430181704702
:1096300081847047818570478186704701877047B4
:1096400081877047A0F840107047038B23F00C030C
:109650001B041B0C0383038B9BB2194301837047CC
:10966000038B23F440631B041B0C0383038B9BB20B
:1096700043EA01218BB203837047F8B50C46A288F8
:109680004988B4F800E0054600290CBF02270027EE
:10969000012A14BF012602262389BEF1000F11D131
:1096A000FFF700FB2846E188FFF7CFFF2846394641
:1096B00032462389FFF70FFB2846E188BDE8F840D2
:1096C000FFF7CEBFFFF707FB2846E188FFF7C8FF8B
:1096D0002846394632462389FFF7E4FA2846E188CE
:1096E000BDE8F840FFF7B1BF838B23F00C031B04E8
:1096F0001B0C8383838B9BB2194381837047838BBD
:1097000023F440631B041B0C8383838B9BB243EACB
:1097100001218BB283837047F8B50E880D4604464D
:109720004988AA882B893EB9FFF7BCFA2046E98808
:10973000BDE8F840FFF789BF042E07D1FFF7CBFA49
:109740002046E988BDE8F840FFF78ABF082EEF8879
:10975000068C1CD126F480763604360C0684858B64
:10976000068CADB225F0F30545EA0313B6B29BB201
:109770001A4326F4007343EA012189B241F480714F
:10978000828301843946BDE8F840FFF7ADBF26F477
:1097900080563604360C0684858B068C25F440757D
:1097A0002D05B6B22D0D45EA022526F4005242EAF7
:1097B000013145EA033389B29BB241F4805183837E
:1097C00001843946BDE8F840FFF799BF038823F4C8
:1097D00040731B041B0C038003889BB21943018058
:1097E0007047808E80B27047008F80B27047808F44
:1097F00080B27047B0F8400080B27047808C80B271
:109800007047008D80B27047038A19420CBF002058
:1098100001207047C94389B201827047038A828957
:1098200011EA030092B203D011420CBF00200120C4
:109830007047C94389B20182704700BF30B501F15A
:109840000051013201F5405152104900002393426A
:1098500000F1020009D010F8015C10F8024C44EA53
:10986000052421F823400133F1E730BD01F1005117
:1098700010B5013201F540545210640000239342A8
:1098800005D054F8231020F813100133F7E710BD6A
:10989000014B1860704700BF405C0040014B1868E6
:1098A00080B27047405C0040014B1860704700BFB9
:1098B000445C0040014B186880B27047445C004033
:1098C000014B186880B27047485C0040014B18603B
:1098D000704700BF4C5C0040014B186880B2704775
:1098E0004C5C00404FF6F873014A03401360704728
:1098F000505C0040014B186880B27047505C0040DB
:10990000800000F1804303F5B84319607047800080
:1099100000F1804303F5B843186880B270478000B7
:1099200000F1804202F5B842106848F68F130340F8
:10993000194311607047800000F1804303F5B8437C
:10994000186800F4C0607047800000F1804202F5A2
:10995000B842106848F6BF730340C80648BF83F09A
:109960001003890648BF83F0200343F4004343F00B
:10997000800313607047800000F1804202F5B84216
:1099800010684BF68F730340C80448BF83F48053BC
:10999000890448BF83F4005343F4004343F0800339
:1099A00013607047800000F1804303F5B84301293C
:1099B000186802D14EF6FF7203E0022903D14FF678
:1099C000EF7202401A607047800000F1804303F597
:1099D000B843186800F030007047800000F1804301
:1099E00003F5B843186800F440507047800000F158
:1099F000804202F5B842116848F6BF730B4083F00D
:109A0000300343F4004343F0800313607047800049
:109A100000F1804202F5B84211684BF68F730B409B
:109A200083F4405343F4004343F0800313607047D2
:109A3000800000F1804202F5B842116840F60F63E1
:109A40000B4043F4014343F08003136070478000F0
:109A500000F1804202F5B842116840F60F630B40F6
:109A600043F4004343F0800313607047800000F12B
:109A7000804202F5B842116840F60F630B4043F490
:109A8000004343F0800313607047800000F1804280
:109A900002F5B842116840F60F630B4043F40143EE
:109AA00043F0800313607047800000F1804202F5AC
:109AB000B842116840F60F630B4043F4014343F092
:109AC000800313607047800000F1804202F5B842C5
:109AD000116840F60F630B4043F4004343F08003EA
:109AE00013607047800000F1804303F5B8431868A5
:109AF00000F03000B0F1100CDCF1000050EB0C0075
:109B00007047800000F1804303F5B843186800F403
:109B10004050B0F58053584258417047800000F1E2
:109B2000804202F5B842116840F60F730B4043F0D3
:109B3000800313607047800000F1804202F5B84254
:109B4000116840F60F730B4043F4004313607047F5
:109B5000800000F1804202F5B842116840F60F73B0
:109B60000B4043F4404343F0800313607047800090
:109B700000F1804202F5B842116840F60F730B40C5
:109B800043F4004343F0C00313607047800000F1CA
:109B9000804303F5B8431A68520408D5196840F6A3
:109BA0000F720A4042F4404242F080021A6070474D
:109BB000800000F1804303F5B8431A68510608D5C8
:109BC000196840F60F720A4042F4004242F0C002A7
:109BD0001A607047800000F1804202F5B8421068B8
:109BE00041F4004140F60F7341F0800103400B4304
:109BF00013607047800000F1804303F5B843186894
:109C000000F00F007047074B49081B6849009BB2E2
:109C100003EBC00000F1005303F540535B001960F3
:109C2000704700BF505C0040054B49081B68490065
:109C30009BB203EBC000034B03445B001960704709
:109C4000505C004004300020054B1B689BB203EBC6
:109C5000C00000F1005303F540535B0018887047C3
:109C6000505C0040044B1B689BB203EBC000034BED
:109C700003445B0018887047505C004004300020AB
:109C8000044B1B689BB203EBC000034B03445B0017
:109C900019607047505C0040023000203E2909D90D
:109CA0004B09C90604BF03F1FF339BB29B0243F487
:109CB000004305E04B08CA0744BF01339BB29B0237
:109CC000036070470E4B3E291B689BB203EBC0003C
:109CD0000C4B03444FEA430209D94B09C90604BFA0
:109CE00003F1FF339BB29B0243F4004305E04B08B2
:109CF000C80744BF01339BB29B021360704700BF8B
:109D0000505C004006300020054B1B689BB203EB03
:109D1000C000044B03445B001868C0F3090070479F
:109D2000505C004002300020054B1B689BB203EBE7
:109D3000C000044B03445B001868C0F3090070477F
:109D4000505C0040063000200B4B10B51C681B68AF
:109D5000C0009BB2A4B204441844084B04F1005460
:109D6000490804F540545208034449006400520075
:109D70005B0021601A6010BD505C00400430002080
:109D8000064B49081B6849009BB203EBC00000F179
:109D9000005303F540535B0019607047505C00406E
:109DA000054B49081B6849009BB203EBC000034BFD
:109DB00003445B0019607047505C00400430002091
:109DC000054B1B689BB203EBC00000F1005303F589
:109DD00040535B0018887047505C0040044B1B6880
:109DE0009BB203EBC000034B03445B001888704731
:109DF000505C004004300020012910B52FD1264BC3
:109E0000C0001968254B89B201440B443E2A4FEA31
:109E1000430109D95309D40604BF03F1FF339BB2B0
:109E20009B0243F4004305E05308D40744BF0133C9
:109E30009BB29B020B60184B3E2A1B689BB21844D6
:109E4000174B03444FEA43031CD95109D40604BFFE
:109E500001F1FF3189B2890241F4004118E0022981
:109E600018D10D49C0000C680C4BA4B20444234423
:109E70005B001A600B689BB21844094B03445B00FB
:109E80001A6010BD5108D00744BF013189B2890260
:109E9000196010BD10BD00BF505C004002300020B2
:109EA0000630002001291CD1144B3E2A1B689BB2AE
:109EB00003EBC000124B03444FEA430109D9530995
:109EC000D00604BF03F1FF339BB29B0243F400436F
:109ED00005E05308D20744BF01339BB29B020B60DD
:109EE0007047022908D1054B1B689BB203EBC000E9
:109EF000034B03445B001A60704700BF505C004096
:109F00000230002001291CD1144B3E2A1B689BB251
:109F100003EBC000124B03444FEA430109D9530934
:109F2000D00604BF03F1FF339BB29B0243F400430E
:109F300005E05308D20744BF01339BB29B020B607C
:109F40007047022908D1054B1B689BB203EBC00088
:109F5000034B03445B001A60704700BF505C004035
:109F600006300020054B1B689BB203EBC000044B7E
:109F700003445B001868C0F309007047505C004060
:109F800002300020054B1B689BB203EBC000044B62
:109F900003445B001868C0F309007047505C004040
:109FA000063000200D4AC00013689BB2C1180C4B4C
:109FB0000B445B001B8813F47C4F0DD113689BB2DC
:109FC0001844084B03445B001888C0F309000028BC
:109FD00014BF02200020704701207047505C0040F1
:109FE000063000200230002001290DD1800000F150
:109FF000804000F5B840026840F60F73134043F408
:10A00000004343F0C0030EE002290DD1800000F1AF
:10A01000804000F5B840026840F60F73134043F4E7
:10A02000404343F080030360704741EA00207047DB
:10A03000C3B2000A40EA0320704700BF8279154B83
:10A0400083F830200268DA62002283F83120027936
:10A05000012A03D0022A04D1402200E0602283F8C2
:10A0600031204279012A03D0022A06D008220BE0CF
:10A0700093F8312042F0030203E093F8312042F0DC
:10A08000020283F831200922024883F8302007F0C9
:10A0900053BB00BFC80300202DE9F0434FF4A0607C
:10A0A0008FB05A4E0024FEF779F801252523684623
:10A0B0008DF800308DF803508DF801408DF8024086
:10A0C000FEF776F8376F2046B8472846B847022093
:10A0D000B8474FF40041D6F888900A462046C84752
:10A0E0002046B847D6F878802A460F212046C04738
:10A0F00020210A462846C8472846B8472A46284607
:10A100000521C047284620212246C8474FF48041F8
:10A110000A462046C8472046B8472A460E21204610
:10A12000C0473B4B06ADD3F848329847D6F8343198
:10A1300020469847D6F83C31364922462046984773
:10A14000FF22D6F840310821204698470821D6F84A
:10A15000483120469847304B304A5A601432A2F1B9
:10A1600018009A6007F0AEFA7369284620219847D4
:10A170002B4B864601AA03F1100C18685968144647
:10A1800003C4083363452246F7D11B78254A237060
:10A190000023BEF1180F34BF714618218B4202F123
:10A1A000040210D2E85C0EAC00F00F01214411F85B
:10A1B000341C04EB101002F8041C10F8341C01339A
:10A1C00002F8021CE5E70220B847D6F884404FF4B5
:10A1D00000510220A04701220D210220C0474FF468
:10A1E00000510220A047104B64201B68D3F84C326A
:10A1F0009847D6F880304FF40051022098470B481A
:10A2000008F095F90FB0BDE8F08300BFE05A0108EF
:10A21000785801084054890014000020CC03002025
:10A22000006001085A000020C40300208C000020B8
:10A2300008B5064807F09EFA054B0020D3F8E03039
:10A240009847BDE80840034807F03DBEC80300201A
:10A25000785801088C0000202DE9F041436890F8FF
:10A260004E200F46242101FB0232D31993F91130FD
:10A270000646002B4DDBD2680C2101FB03235B68F3
:10A28000002B46D0254C2268002A03DA01226260A6
:10A290000022A2609B781BB133693846DB6F984778
:10A2A00033693846D3F89C3098471C4DA26833690F
:10A2B000804605F10C01D3F8A030114438464246DF
:10A2C000984733693846D3F8A4309847B8F1000F5F
:10A2D0001CD0AB6873B92B7B0F2B02D8C5F800805C
:10A2E00008E0203BDBB25F2B04D86B7BAA7B03EB3F
:10A2F00002232B60A268094B4244A2602268A16835
:10A30000914203D31A6842F000421A600020BDE86F
:10A31000F0816FF00500BDE8F08100BF7C0C0020EB
:10A320002DE9F0414B6891F84E200C46242101FBA9
:10A330000233DB680C22264D02FB00302B68D0F87C
:10A340000480002B41DA234B0020D3F888700246AA
:10A350004FF48041B847284650F80C1B89B20AF0E8
:10A36000ADFB1D4B05F10C01D3F8142F32B1D3F81E
:10A37000142F42F00042C3F8142F00E02A60002698
:10A38000AE60D3F8143F144DB34219DA98F80120A7
:10A390002046033204EB4212131D5160D5F8142FEE
:10A3A0005E6192B25A60D5F8142FC2F300429A73DC
:10A3B00098F8011007F0D9FE054B1E60C5F8146F20
:10A3C0004FF4804100200A46B8470020BDE8F081E4
:10A3D0007C0C0020E05A0108741D002038B54B6841
:10A3E00091F84E200C46242101FB0233DB680C223D
:10A3F00002FB00304568134808F03CFC20462978F1
:10A40000114A07F056FD10B16FF0050038BDAB786A
:10A4100053B923692878D3F8A4309847002814BF8B
:10A420006FF00500002038BD236968785B6C9847A1
:10A430000028E9D1236928785B6F98470028E8D085
:10A44000E2E700BF8C34002059A2000803461A46F8
:10A45000117801330029FAD1101A704710B501386C
:10A4600010F8013F0C4623B111F8012B0AB19342B9
:10A47000F6D02078181A10BD0B7810B54BB10346F2
:10A4800011F8012B1C4604F8012B0AB12346F7E70B
:10A490005A7010BD0B7810B55BB10244034693426D
:10A4A00005D011F8014B03F8014B002CF7D1002225
:10A4B0001A7010BD10B5044610F8013BCAB20BB1BA
:10A4C0009342F8D193420CBF2046002010BD0B7878
:10A4D00030B56BB1024613461878013248B1481EB8
:10A4E00010F8014F24B113F8015BA542F8D0F2E750
:10A4F000184630BD10B50446224613780134002BAF
:10A50000FAD1CC5CD4540133002CFAD110BD30B553
:10A5100005462C4623780135002BFAD1934204D00E
:10A52000CD5CE5540133002DF8D130BD10B50446A3
:10A53000FFF78CFF01300AF051FB2146BDE81040C7
:10A54000FFF79ABF10B50023934203D0CC5CC454EC
:10A550000133F9E710BD30B50023D41A002C08DD13
:10A56000C55C0133CC1814F8014CA542F5D0281B6A
:10A5700030BD002030BD10B503468418E41A002C0D
:10A5800002DD03F8011BF8E710BD0000044B1A6858
:10A590000AB9044A1A601A681044186010467047D5
:10A5A0008C3C0020D43F00204FF0FF30704700204B
:10A5B00070474FF400534B600020704701207047F4
:10A5C00000207047002070471046704708B5024BC6
:10A5D000D3F80C33984708BDE05A010808B5034B7F
:10A5E000C0F30E00D3F81033984708BDE05A0108B5
:10A5F00008B5034BC0F30E00D3F81433984708BDD9
:10A60000E05A010808B5024BD3F8F832984708BD64
:10A61000E05A010808B5024BD3F8FC32984708BD50
:10A62000E05A010808B5024BD3F80033984708BD3B
:10A63000E05A010808B5024BD3F80433984708BD27
:10A64000E05A010808B5024BD3F80833984708BD13
:10A65000E05A010800207047002070470020704732
:10A66000002908BFB0F5003F00F0A7804FF400328A
:10A6700000238B4208BF824241D3002908BF102823
:10A6800000F09380002908BF11281AD2002908BFC2
:10A69000022800F0A480002908BF032806D2002960
:10A6A00008BF012840F099804E487047002908BF34
:10A6B000042878D0002908BF082840F08E804A4836
:10A6C0007047002908BF802873D0002908BF81285F
:10A6D00009D2002908BF202869D0002908BF4028D6
:10A6E0007BD142487047002908BFB0F5807F62D017
:10A6F000002908BFB0F5803F6FD13D487047002961
:10A7000008BFB0F5000F62D04FF4000200238B4267
:10A7100008BF824223D3002908BFB0F5801F52D062
:10A720004FF4801200238B4208BF82420BD30029D2
:10A7300008BFB0F5802F42D0002908BFB0F5002F28
:10A740004BD12C487047002908BFB0F5001F3CD002
:10A75000002908BFB0F5800F3FD127487047002976
:10A7600008BFB0F1806F36D04FF0806200238B427B
:10A7700008BF82420BD3002908BFB0F1807F28D0E8
:10A78000002908BFB0F1007F27D11C48704700297D
:10A7900008BFB0F1006F14D0002908BFB0F1805F8E
:10A7A0001BD117487047174870471748704717481C
:10A7B0007047174870471748704717487047174841
:10A7C0007047174870471748704717487047174831
:10A7D0007047174870471748704700207047164861
:10A7E000704700BF116001082B6001084660010836
:10A7F0006060010895600108B4600108D16001083B
:10A80000E060010823600108346001083C60010831
:10A810004E60010856600108696001087560010812
:10A82000816001088E600108A4600108C060010811
:10A83000C8600108D86001081B60010870B50729CD
:10A840004FF00F0502EA050409D88B009D409C409B
:10A85000066826EA050545EA040303600AE0A1F15B
:10A8600008039B009D409C40466826EA050545EA92
:10A8700004034360930608D5012312F0100F03FA76
:10A8800001F101D0016170BD416170BD08B1024BA1
:10A8900003600020704700BF78580108002814BFEB
:10A8A0004FF0FF3000207047002814BF4FF0FF30FA
:10A8B000002070472DE9F843089D0C4616461F46B8
:10A8C000002840F0EC8022F4577323F003030B427E
:10A8D00040F0E98021EA020323F46B7323F00303C1
:10A8E000002B40F0E080CA0732D516F0010F07F0C8
:10A8F000010322D0DFF8B88105F001097BB14046A1
:10A900000B210722FFF79AFF4FF40063B9F1000F04
:10A9100002D0C8F810301BE0C8F8143018E04FF42B
:10A920000063B9F1000F02D0C8F8103001E0C8F898
:10A9300014305F480B21032208E05D480B2123B14E
:10A94000EB074CBF3822282200E00422FFF776FFF5
:10A95000A0071AD5B1070BD5554B4FF4806215F0FF
:10A96000020F14BF1A615A6151480A2103220AE0FA
:10A97000BA074F484FF00A0104D5AB074CBF382245
:10A98000282200E00422FFF759FFA00519D5B105E0
:10A990000AD5474B402215F4007F14BF1A615A6153
:10A9A0004348062103220AE0BA0541484FF0060158
:10A9B00004D5AB054CBF3822282200E00422FFF763
:10A9C0003DFFE20511D5F3050AD5394B102215F4E8
:10A9D000807F14BF1A615A6135480421032202E0C6
:10A9E000042133480A46FFF729FF60071AD571078B
:10A9F0000BD5304B4FF4007215F0040F14BF1A61E1
:10AA00005A612C48092103220AE07A0729484FF0AD
:10AA1000090104D56B074CBF3822282200E004222C
:10AA2000FFF70CFF22071AD533070BD5214B4FF444
:10AA3000806215F0080F14BF1A615A611D480A217F
:10AA400003220AE03E071B484FF00A0104D52D07F8
:10AA50004CBF3822282200E00422FFF7EFFEE10677
:10AA600004D513480D210322FFF7E8FE620604D542
:10AA70000F480F210322FFF7E1FEA30604D50C487F
:10AA80000E210422FFF7DAFE14F080000DD00948F1
:10AA900008210422FFF7D2FE0020BDE8F8834FF022
:10AAA000FF30BDE8F8836FF00600BDE8F88300BF13
:10AAB000000C014000080140002830D1C80703D530
:10AAC000184B4FF400625A618A0703D5154B4FF4B7
:10AAD00080625A618B0502D5124B40225A61C8052B
:10AAE00002D5104B10225A614A0703D50E4B4FF482
:10AAF00000725A610B0703D50B4B4FF480625A6109
:10AB0000C80603D5074B4FF400525A6111F04000BC
:10AB100007D0044B4FF400425A61002070474FF0B9
:10AB2000FF307047000C014000080140002830D180
:10AB3000CB0703D5184B4FF400621A61880703D581
:10AB4000154B4FF480621A618A0502D5124B4022E0
:10AB50001A61CB0502D5104B10221A61480703D5A4
:10AB60000E4B4FF400721A610A0703D50B4B4FF4DA
:10AB700080621A61CB0603D5074B4FF400521A616D
:10AB800011F0400007D0044B4FF400421A6100203E
:10AB900070474FF0FF307047000C01400008014043
:10ABA00010B5002859D121F47F7323F00303002B43
:10ABB00056D1C80707D52C4B12F0010F4FF4006097
:10ABC00014BF186158618B0707D5274B12F0020F8D
:10ABD0004FF4806014BF186158618C0507D5224B73
:10ABE00012F4007F4FF0400014BF18615861C8058F
:10ABF00007D51D4B12F4807F4FF0100014BF186171
:10AC000058614B0707D5194B12F0040F4FF4007031
:10AC100014BF186158610C0707D5144B12F0080FC8
:10AC20004FF4806014BF18615861C80607D50E4BF9
:10AC300012F0100F4FF4005014BF1861586111F05A
:10AC400040000FD012F04000074B4FF4004402D0F8
:10AC50001C61002010BD5C6110BD4FF0FF3010BDC5
:10AC60006FF0060010BD00BF000C0140000801405D
:10AC7000002848D121F46B7323F00303002B45D146
:10AC800011F0010303D0234B9B68C3F3C023880753
:10AC900005D520488068400548BF43F00203880579
:10ACA00005D51C488068400648BF43F40073C805BA
:10ACB00005D518488068400648BF43F480734807AC
:10ACC00005D515488068800548BF43F00403080790
:10ACD00005D511488068400548BF43F00803880641
:10ACE00005D50C488068400448BF43F0200308069F
:10ACF00005D509498968C90548BF43F0800302B1F9
:10AD00001360002070474FF0FF3070476FF006006F
:10AD1000704700BF000C01400008014008B518B999
:10AD2000034BDB6D984708BD4FF0FF3008BD00BFF7
:10AD3000E05A010808B518B9034B1B6E984708BDC7
:10AD40004FF0FF3008BD00BFE05A010808B518B940
:10AD5000034B5B6E984708BD4FF0FF3008BD00BF46
:10AD6000E05A010808B518B9034B9B6E984708BD17
:10AD70004FF0FF3008BD00BFE05A010808B518B910
:10AD8000034BDB6E984708BD4FF0FF3008BD00BF96
:10AD9000E05A010810B9034806F094BC4FF0FF30A8
:10ADA000704700BFC803002010B9034806F0AEBCCE
:10ADB0004FF0FF30704700BFC803002038B9054886
:10ADC00080F83020C16280F8313006F0B5BC4FF019
:10ADD000FF307047C803002007B538B949B18DE886
:10ADE00006000648694606F0C2FC04E04FF0FF305A
:10ADF00001E06FF0080003B05DF804FBC803002019
:10AE000007B538B949B18DE806000648694606F02D
:10AE1000ABFC04E04FF0FF3001E06FF0080003B03E
:10AE20005DF804FBC803002038B50C46054690B910
:10AE3000A1B10C4807F037FE20600A4807F02BFE4E
:10AE40006060094807F02FFEA060074807F023FE66
:10AE5000E060284638BD4FF0FF3038BD6FF0080085
:10AE600038BD00BFCC030020E003002010B9034828
:10AE700006F080BC4FF0FF30704700BFC8030020D1
:10AE800008B5024BD3F85032984708BD78580108EE
:10AE90000A4B1A78037822B123F07F01C9B25B0014
:10AEA00002E003F001015B0803704FF40042044B21
:10AEB00009B11A6170475A61704700BF903C002089
:10AEC000000C01400B4B0C4A9B68127813F4804F26
:10AED000037808D01AB15B0043F0010307E05B0878
:10AEE00063F07F0303E00AB15B0000E05B080370DE
:10AEF000704700BF000C0140903C002030B500239B
:10AF000085B08DF807008DF80F300825204C637848
:10AF1000D80703D40DF10700FFF7BAFF2079FFF738
:10AF2000AFFF63781B4A13F0020F4FF4005114BFB8
:10AF300051611161D90703D40DF10F00FFF7C2FF72
:10AF40002079FFF79DFF6378DA0703D50DF107003D
:10AF5000FFF79EFF2079FFF793FF63780D4A13F008
:10AF6000020F4FF4005114BF11615161DB0703D58B
:10AF70000DF10F00FFF7A6FF2079013DFFF780FFDD
:10AF800015F0FF05C2D19DF80F0005B030BD00BF20
:10AF9000903C0020000C0140002814BF4FF0FF300F
:10AFA0000020704708B528B9044B0120D3F8F830C9
:10AFB000984708BD4FF0FF3008BD00BFE05A0108B8
:10AFC0002DE9F7432B4E80460F46D6F8FC30012082
:10AFD000694615469847002844D1019B4FF47A7979
:10AFE000B3FBF9F3B8F1000F3FD19F42224C2BD2B3
:10AFF00009FB07F70120D6F8F830207298471F4B5D
:10B0000015F0020FB3FBF7F76FEA0503C3F3C013A4
:10B01000237005F003036370194B4FF4005267600F
:10B02000174814BF1A615A610D210322FFF706FC6D
:10B0300013480F210322FFF701FC11480E210422BF
:10B04000FFF7FCFB002012E0D6F8F430012084F872
:10B0500008809847D6F80831394645F004020120A7
:10B06000984704E06FF0050001E04FF0FF3003B0B7
:10B07000BDE8F083E05A0108903C002090D0030026
:10B08000000C014008B528B9044B0120D3F80C315D
:10B09000984708BD4FF0FF3008BD00BFE05A0108D7
:10B0A00008B528B9044B0120D3F81031984708BDE2
:10B0B0004FF0FF3008BD00BFE05A0108F8B50F4659
:10B0C00014461E4680BB1A4D2D7A55B1C1B90AB13E
:10B0D00016440DE0B44209D0FF20FFF70FFF013402
:10B0E000F8E7144C0120D4F82441A0470020F8BD13
:10B0F000B442FBD0FF20FFF701FF04F8010BF7E794
:10B100000AB1054608E00C460E44B442EED014F8ED
:10B11000010BFFF7F3FEF8E7B542E7D0785DFFF7E4
:10B12000EDFE60550135F7E74FF0FF30F8BD00BF89
:10B13000903C0020E05A010838B5054640F2E93459
:10B14000013C0DD0074B9B6815B1DA0502D538BD1F
:10B15000DB0505D5044B0120D3F850329847EFE7C3
:10B1600038BD00BF000801407858010810B5054BF4
:10B170001A89D407FBD59A89034CA181988190B292
:10B1800010BD00BF00380040003001402DE9F04FF5
:10B1900089B01C469DF84CB09DF85430BDF84870FD
:10B1A00005930BEB040303F0070CDB080133079353
:10B1B00017F00703804606919DF850A005D00121A5
:10B1C00001FA03F3013BDBB203E0002F14BFFF23BE
:10B1D0000023AC4D03932B7813B3E018082869784B
:10B1E00018DD02FA03F31943C9B269706B680020D5
:10B1F0000192CDF800C098472B78019AC3F108015D
:10B200000A41083B1C4400232B70D2B2E4B2DDF8A3
:10B2100000C005E0A14000230A43D2B2C4B22B70A3
:10B220000023B9462646029304931D460BEB070301
:10B2300013EB0A0300F0DB80BBF1000F26D054B102
:10B24000C4F10801904B8B45ACBF5D5C13F80B500B
:10B25000B540EDB206E0BBF1070F96BF8A4BFF2564
:10B2600013F80B505C44082C06DCE4B2082C0BD01D
:10B2700026464FF0000B09E05FFA84FBABF1080BA8
:10B280005FFA8BFB082401E00026B346002F2ED086
:10B29000072C2CD80698C8B1049B73B103460498B8
:10B2A000B742034413F8015CC6F1080345FA03F5FD
:10B2B00007D906980499435C01E006990B78B340DE
:10B2C0001D430498EDB2431C9BB204933B19082B19
:10B2D00005DCDCB2082C08D02646002707E0083F32
:10B2E000BFB23C44A7B2082401E000263746BAF1B9
:10B2F000000F25D0072C23D85CB1634BC4F10801A3
:10B300008A45ACBF5B5C13F80A30B3401D43EDB215
:10B3100006E0BAF1070F96BF5B4BFF2513F80A5002
:10B320000AEB0403082B03DCDCB24FF0000A07E051
:10B33000AAF1080A5FFA8AFA54445FFA84FA0824E8
:10B340000BEB070353442BB9013C012303FA04F42C
:10B350002243D2B24B4B28465B681146CDF800C061
:10B360009847DDF800C0B8F1000F3DD0B9F1000FEB
:10B3700036D0029A079B9A4232D3D31A9BB2C0B2FC
:10B38000CBB1CCF1080400FA04F45A1E18F80210EC
:10B39000E14544EA0101C9B208D9CCEB09091FFA19
:10B3A00089F9E14508F8021005D819E0039B194016
:10B3B00008F8021012E040FA0CF0CCF108029145B6
:10B3C000C0B207DD08F80300ACF1080399441FFA86
:10B3D00089F905E0039A104008F803004FF00009CE
:10B3E000029A531C9BB20293002214461EE7059852
:10B3F000244C00F00702052A4FF0C00609D846FA8F
:10B4000000F16268184689B2CDF800C09047C5B215
:10B4100014E0059A1846C2F1080106FA01F16268C3
:10B4200089B20193CDF800C09047059A019B46FA76
:10B4300002F1C5B26268184689B29047DDF800C0D3
:10B44000B8F1000F2ED0B9F1000F2BD0029B079856
:10B450001A1A92B2FAB1CCF1080105FA01F1531EA1
:10B4600018F80300E14541EA0001C9B208F80310E9
:10B470000CD945FA0CFC039B03EA0C0C08F802C03B
:10B4800010E000BF9C3C0020FC030020039A114008
:10B4900008F8031006E045FA0CFC039B03EA0C0CC9
:10B4A00088F800C0059AD50835B1002063680146C8
:10B4B000013D9847EDB2F7E709B0BDE8F08F10B550
:10B4C0000C48FCF7CBFE0C48FCF7C8FE0B48FCF719
:10B4D000C5FE00210120FDF7F1F9094B4FF0FF32C5
:10B4E000DA60084B0120D3F8F840A0471020A047AD
:10B4F000002010BD440002405800024030000240CD
:10B50000FC030020E05A01082DE9F041534F90B0B0
:10B5100005460C46D7F8FC60012003A9B047B846A1
:10B5200010B16FF0060096E0102001A9B047002886
:10B53000F7D1049B019A9A42F3D3029F039A974250
:10B54000EFD89F4238BF1F464FF47A72B7FBF2F72D
:10B55000FFF7B5FFBD4206D3D8F8F4600120B0472D
:10B560001020B0471CE03E4E4FF40053336130468C
:10B570000D210322FFF762F930460E210422FFF766
:10B580005DF930460F210322FFF758F930460421B8
:10B590000322FFF753F9334808210422FFF74EF93D
:10B5A000314BBD42DD600ED32946D8F808618722B1
:10B5B0000120B047019B4FF47A71B3FBF1F1832274
:10B5C0001020B04703E015B90120FFF7B5FD274E65
:10B5D0004CB9274B7F229A81BD42A3F578439C81C9
:10B5E00036D3244B35E0012C30D1BD422BD320463D
:10B5F0002146FDF763F9204B0025059380230A932C
:10B600001E484FF4405305A90E93069507950895DB
:10B6100009950B950C950D950F95FCF795FE184B1C
:10B620001848059305A910230793FCF78DFE1648CB
:10B6300021462246FDF7B3FA0D4802212246FDF7C6
:10B64000AEFA124B00E0124BB36003E0104BB36054
:10B65000104B7360002010B0BDE8F081E05A010883
:10B66000000C014000080140FC0300209C3C00202D
:10B67000003001406DB100080C3800404400024029
:10B680000C3001403000024000380040CDB70008C7
:10B6900059B70008E9B6000808B5104B4FF400513F
:10B6A000DA6812F4005F0E4A07D05961D06890B191
:10B6B0004FF4FA7393FBF0F006E01961D3684BB1D5
:10B6C0004FF4FA7292FBF3F0064B80B2D3F850328B
:10B6D000984708BD0120BDE808402DE5000C014059
:10B6E000FC030020785801082DE9F041184C002394
:10B6F000B4F80C8005460E46A3810827A38915F0EF
:10B70000010F4FEA5303A381124B4FF4004214BFC1
:10B710001A615A6116F0010F4FF0100214BF1A613E
:10B720005A61FFF7B9FFFFF7B7FF0A4B9B685B044D
:10B7300003D5A38943F08003A3817B1E13F0FF0789
:10B740004FEA55054FEA5606D8D14046BDE8F0818C
:10B750009C3C0020000C01402DE9F84F81468A46B0
:10B7600093461F4600244C452CD004F007030126C5
:10B770009E40F6B2012E4FEAD40504BF00237B554C
:10B780001AF805304FF400421E420F4BDFF83880A4
:10B7900014BF1A615A611BF805301E424FF01003A6
:10B7A00014BFC8F81030C8F81430FFF775FFFFF762
:10B7B00073FFD8F808305A0402D57B5D1E437E55CE
:10B7C0000134D0E7BDE8F88F000C01402DE9F843C3
:10B7D000C0F3CF050F4616469846002D31D03C4C9D
:10B7E0006560E360236843F00103236044F8105C64
:10B7F00044F8082C54F8143C43F0010344F8143C7A
:10B800000024344B1A899207FBD53A5D01349A81A2
:10B81000A3B2AB42F5D3304B1A689404FBD54FF476
:10B8200000525A601A689105FCD52B4B4FF40072F8
:10B830005A605A6C22F001025A641A6B22F001021B
:10B840001A6310F0070941D0244C25480021FDF768
:10B850007FF94FF40053236120460D210322FEF7A8
:10B86000EDFF20460E210422FEF7E8FF20460F21BF
:10B870000322FEF7E3FF204604210322FEF7DEFF4A
:10B8800008EB0503721948467919FFF765FF14485C
:10B890000121FDF75DF920460D210B22FEF7CEFFB9
:10B8A00020460E210B22FEF7C9FF20460F210B2256
:10B8B000FEF7C4FF204603210B22FEF7BFFF204600
:10B8C00004210B22BDE8F843FEF7B8BFBDE8F883BA
:10B8D000440002400038004000000240000C0140DB
:10B8E00000300140002814BF4FF0FF3000207047A7
:10B8F00000B9E4E54FF0FF307047034610B9084641
:10B90000194601E64FF0FF30704730B548B9064B95
:10B910004D784C888A8809785D6119619C61DA618B
:10B9200030BD4FF0FF3030BD9C3C002010B51446B8
:10B9300058B9FFF7E2FF58B92146FFF7E6FF0028A4
:10B9400014BF6FF00500002010BD4FF0FF3010BD98
:10B950006FF0050010BD70B50E46C8B9D5B20446EB
:10B96000E300EB1ADBB2072B06D90B4B315D5B68AA
:10B97000002098470134F3E7EA08A5EBC20010F075
:10B98000FF0007D0044B1870B25C00205A7070BDE5
:10B990004FF0FF3070BD00BF9C3C002030B50C461E
:10B9A00089B00146A0B968462022FEF7E4FD6CB1DB
:10B9B000B4F5807F94BFE5B24FF4807500206946EE
:10B9C0002A46FFF7C8FF30B9641BF0E7204604E0C1
:10B9D0004FF0FF3001E06FF0050009B030BD18B93D
:10B9E000034B1A62596270474FF0FF30704700BF37
:10B9F0009C3C00202DE9F047D71DFF1086B00C4677
:10BA000091469A461FFA87F800285BD1304DB8F16D
:10BA1000040FC5F8A80003D90868C5F8A80004E019
:10BA200005F1A8003A46FEF78DFD6E6A0020ADF8DC
:10BA30001600274BD6B9274BBDF81660CDF80090FD
:10BA4000002E0CBF26461E46A3F128092B7E304649
:10BA500001932B7F31460293CDF80CA004230322DF
:10BA6000FFF794FB9DF838307BB91CE08DE810019E
:10BA70000DF116020292D3F8A82001462833B047F0
:10BA80000028D8D06FF005001EE0D9F82050002023
:10BA9000ADF816004DB9BDF8165025B9204631460F
:10BAA0003A46FEF74FFD00200EE08DE840010DF113
:10BAB000160302930146D9F8A8202346A847002878
:10BAC000E9D0DFE74FF0FF3006B0BDE8F08700BFF8
:10BAD0009C3C0020C43C00202DE9F047D71DFF10FE
:10BAE00086B00C4691469A461FFA87F800284CD13A
:10BAF000284EADF81600756AD5B9274BBDF816501B
:10BB0000CDF80090002D0CBF25461D46A3F1280955
:10BB1000337C28460193337D29460293CDF80CA04F
:10BB200003230122FFF732FB9DF8383083B91DE073
:10BB30008DE810010DF1160302930121D6F8A8201B
:10BB400006F12803A8470028D7D06FF005001EE0B3
:10BB5000D9F820600020ADF816004EB9BDF8166087
:10BB600026B9204629463A46FEF7ECFC00200EE0B6
:10BB70008DE820010DF1160302930121D9F8A820C8
:10BB80002346B0470028E9D0DFE74FF0FF3006B08A
:10BB9000BDE8F0879C3C0020C43C0020002814BF76
:10BBA0004FF0FF300020704700B988E44FF0FF30BD
:10BBB0007047034610B908461946A5E44FF0FF3018
:10BBC000704770B50D46164660B90446A3B2B3423D
:10BBD00006D2064B295D5B68002098470134F5E7E3
:10BBE000002070BD4FF0FF3070BD00BF9C3C0020B6
:10BBF00038B5154650B90C4634B1064B00205B6889
:10BC000029469847013CF7E7204638BD4FF0FF3002
:10BC100038BD00BF9C3C00200732F8B50D46D60861
:10BC2000002836D1002937D00BB146F4004616F46F
:10BC3000004F1B4F0AD0C6F30E067B6828789DF88C
:10BC40001810013E9847B6B2012400E000242644B3
:10BC5000013EB6B2B4420BD07B68285D0021984704
:10BC6000C0B214B12B1903F8010C0134A4B2F1E7EE
:10BC70007B68285D9DF81C102E1998470CB106F8BA
:10BC8000010C7B689DF82010002098473070002040
:10BC9000F8BD4FF0FF30F8BD6FF00800F8BD00BFF1
:10BCA0009C3C0020002814BF4FF0FF30002070475C
:10BCB00000B904E44FF0FF30704710B90846012185
:10BCC00022E44FF0FF307047F8B5044640B951B157
:10BCD0004AB143B1054885680698A8472046F8BD93
:10BCE0004FF0FF30F8BD6FF00800F8BD9C3C00201D
:10BCF00070B5002213468B421CD0104C4FF40055F7
:10BD000025616561A468012614F0400F4FEAD30451
:10BD100003F00705A4B206FA05F5065D04D0354325
:10BD200001320555D2B202E026EA05050555013378
:10BD30009BB2E0E702F0010070BD00BF000C0140C3
:10BD400030B5002213468B4218D0DC08055D03F0A5
:10BD5000070445FA04F414F0010F0A4C4FF01005E3
:10BD600016BF2561656101324FF4005503F10103EF
:10BD7000256118BFD2B265619BB2E4E702F0010011
:10BD800030BD00BF000C01402DE9F84F00260546EC
:10BD90008B4634465C4529D0164F174BDFF85C9034
:10BDA0004FF4005AD3F85082C7F810A0B9F8000039
:10BDB000C047C7F814A0BB68012113F0400F4FEA39
:10BDC000D40304F007029BB201FA02F2E95C04D04A
:10BDD0000A430136EA54F6B202E021EA0202EA54CA
:10BDE000B9F800000134C047A4B2D3E706F001005F
:10BDF000BDE8F88F000C014078580108483D00204C
:10BE00002DE9F84F002582468B462C465C4527D00D
:10BE1000E3081AF8032004F0070342FA03F313F0CF
:10BE2000010F114B4FF0100214BF1A615A61DFF875
:10BE300040900E4B0C4F18BF0135D3F850624FF4B1
:10BE40000058B9F8000018BFEDB20134B047C7F888
:10BE50001080B9F80000B047A4B2C7F81480D5E745
:10BE600005F00100BDE8F88F000C0140785801088A
:10BE7000483D002007B5002302A840F8043D034BCD
:10BE800008215B68984703B05DF804FB483D00203B
:10BE90002DE9F04700F0040886B089468DF80700C8
:10BEA0005FFA88F800264C4D10274C4C0322284698
:10BEB00004212F61FEF7C2FC636808210DF1070021
:10BEC000984704210A462846FEF7B8FCD9F8003006
:10BED0001A0A8DF8152023FA07F28DF814301B0E7C
:10BEE0008DF816208DF81730B8F1000F1FD0A36819
:10BEF00003A803219847A36805A820219847A368B1
:10BF000082468DF80B0001210DEB07009847344A5B
:10BF100050448DF80B001178A3680DEB070098478B
:10BF20002F61284604210322FEF788FC19E02C4BE0
:10BF300003A81978A36803319847284603222F6184
:10BF40000421FEF77BFC6368202105A8984705467D
:10BF500006A800F80D5D62680121904728448DF81D
:10BF60000B00FFF787FF04211B480A46FEF766FC1B
:10BF7000B8F1000F0FD09DF816309DF815201B0466
:10BF800043EA02239DF8142013439DF8172043EA47
:10BF90000263C9F80030039800F0070002280390FC
:10BFA0000BD0042814D001280FD19DF80B3013F0CA
:10BFB000010F0CBF012011200BE00136A389B6B29E
:10BFC000B3423FF670AF422003E040F0200000E0B3
:10BFD000842006B0BDE8F087000C0140483D0020F9
:10BFE0000C04002010B5084C042120460A46FEF738
:10BFF00025FC4FF40053236120460D210322BDE8A8
:10C000001040FEF71BBC00BF000C014010B5064CF1
:10C01000042120460A46FEF711FC20460D21042289
:10C02000BDE81040FEF70ABC000C0140064B20B9E9
:10C03000064A9A60064A5A607047064A01389A6072
:10C04000054A18805A607047483D0020F1BC00083E
:10C0500041BD000889BD000801BE00080E289CBF34
:10C06000014B1870704700BF0C040020014B9881F1
:10C07000704700BF483D0020002814BF4FF0FF303C
:10C080000020704710B5044618B9FFF7BFFF2046DF
:10C0900010BD4FF0FF3010BD70B515461E4604466A
:10C0A00058B90846FFF7DAFF054B30469D81FFF788
:10C0B000BDFFFFF797FF204670BD4FF0FF3070BD0A
:10C0C000483D0020F8B50E4617460546A0B9B1B167
:10C0D0000C4C10232361204603220421FEF7AEFB03
:10C0E000094B39465B6830469847042120460A468A
:10C0F000FEF7A4FB2846F8BD4FF0FF30F8BD6FF007
:10C100000800F8BD000C0140483D002038B50B4642
:10C11000044638B949B1064918468D681146A84702
:10C12000204638BD4FF0FF3038BD6FF0080038BDF5
:10C13000483D002010B51C46E8B9FAB1C1F38003B0
:10C14000C1F340001844C1F3C003184400EB1110C0
:10C1500000F0010041EA401101F03E0040F0810092
:10C160001146FFF795FE04B12070012814BF6FF04F
:10C170000500002010BD4FF0FF3010BD6FF008002B
:10C1800010BD00BF3A4B2DE9F0431A68CF1C22F0D6
:10C1900001021A60374A5F60DA601C684E1E44F084
:10C1A00001041C60148BB2F832905483F6B202F191
:10C1B0001E03002590464FFA86FCBCF1000FA3F148
:10C1C000020210DB40FA0CFC1CF0010F18BF013515
:10C1D00006F1FF3616BF23F8029C23F8024CEDB29D
:10C1E000F6B20233E7E7ED074ABFB8F83200148031
:10C1F000108000221A80204B01229A821F4B1A685D
:10C2000022F001021A601E4A5F60DA601A6842F08A
:10C2100001021A601B4B1A689405FBD54FF400729B
:10C220005A60194A174B1868800401D4013AF9D1B1
:10C230004FF4005058600E4B0E4C186820F001006F
:10C2400018600A205860A01CD860186840F00100EF
:10C2500018604AB1023134F81100A38E984294BF9D
:10C2600000200120BDE8F0830120BDE8F08300BF7D
:10C2700044000240583D00200004004030000240CD
:10C28000723D002000000240FFFF0F00002814BF95
:10C290004FF0FF300020704710B5044660BB04210A
:10C2A0000A461748FEF7CAFA21461648FCF7ACF9C9
:10C2B0001548FCF72DFD21460220FCF717FB13481B
:10C2C000FBF7CCFF21460120FCF7F8FA1048FCF7F9
:10C2D0001FFD21460420FCF709FB0E48FBF7BEFFBB
:10C2E0000D48FBF7BBFF01202146FCF7E7FA0B4B9B
:10C2F000204683F8364010BD4FF0FF3010BD00BF20
:10C30000000C014000081A00000400403000024008
:10C31000000800404400024008000240583D002050
:10C320002DE9F04F0F4693B092469B46002840F00F
:10C33000A880564E96F83650002D70D10124204624
:10C34000214686F83640FCF7B9FA21460220FCF770
:10C35000CDFA4F48FBF782FF07A8FCF714F84D4BC6
:10C360004FF01008079380230C934FF480634FF431
:10C3700080790E9346484FF4805307A91093CDF867
:10C3800024800A950B95CDF834900F951195FBF705
:10C39000DBFF21463E48FCF703F86846FCF7E7FE62
:10C3A00069463D48ADF80050ADF80250ADF8045074
:10C3B000ADF806508DF80850FCF780FD03A8FCF797
:10C3C000DFFE6023ADF80C303348022303A9ADF83B
:10C3D0001430ADF80E40ADF81250FCF7B9FD2E4800
:10C3E0000821FCF7EEFF2C482146FCF7BAFF224655
:10C3F00029484946FCF708FF27482146FCF7DBFEA1
:10C4000025482146FCF7E3FE24482146FCF7FCF8CA
:10C4100023480421C0F810800F22FEF70FFA308F56
:10C4200058B9482393FBF7F398B27B43C3F1480311
:10C43000B3EB570FA8BF0130C00100FB0AFA00FBA5
:10C440000BF0CAF3CF130AF07F0AC0F3CF12BAF190
:10C450003F0F00F07F00C8BF01333F28C8BF013243
:10C4600033837286728E338B002013449BB203EBAE
:10C47000D301094A89B291850121CB409182B386CB
:10C4800001E04FF0FF3013B0BDE8F08F583D0020C1
:10C4900030000240340400400004004000081A004C
:10C4A000000C014008B540B90321FFF76BFE0028DE
:10C4B0000CBF00206FF0050008BD4FF0FF3008BD35
:10C4C0002DE9F743894690461C46002851D112B900
:10C4D0006FF005004FE00029FAD00546454546D2E9
:10C4E000230AC5EB08068DF80530230CFF2E8DF8C6
:10C4F00006304FF002004FEA14634FF00301D4BF3F
:10C50000F6B2FF268DF804408DF80730FFF73AFEAB
:10C510000028DDD130460821FFF734FE0028D7D1AE
:10C52000019F0821C7F30740FFF72CFE0028CFD159
:10C53000C7F307200821FFF725FE0028C8D1F8B26D
:10C540000821FFF71FFE0028C2D10746FBB2B34205
:10C5500009D209EB0503D85D0821FFF713FE013767
:10C560000028F3D0B4E735443444ADB2B6E7002038
:10C5700001E04FF0FF3003B0BDE8F0832DE9F74F45
:10C58000894690461C46002840F09E8012B96FF004
:10C5900005009BE00029FAD00646464580F09280CF
:10C5A000230AC6EB08078DF80530230CFF2F8DF802
:10C5B00006304FF001004FEA14634FF00301D4BF7F
:10C5C000FFB2FF278DF804408DF80730FFF7DAFD42
:10C5D0000028DCD138460821FFF7D4FD0028D6D149
:10C5E000019D0821C5F30740FFF7CCFD0028CED1FF
:10C5F000C5F307200821FFF7C5FD0028C7D1E8B221
:10C600000821FFF7BFFD0028C1D1324A0346B2F826
:10C6100034C0B2F832A0D9B2B9424FD22E492F4815
:10C620000568AD0401D40139F9D14FF400554560D6
:10C6300009EB06000025C5540029A8D051886145A2
:10C64000A5D20721A2EB41056D8A654506D20125D9
:10C650008D4010F803B045EA0B05C55411F1FF31C8
:10C66000F0D21F4D0120296821F0010129600B2122
:10C670006960EA60296841F0010129600021918325
:10C680001849A2F81AA0888255F8141C21F001015B
:10C6900045F8141C022145F8101C134945F8081CE4
:10C6A00055F8141C014345F8141C0C490868800512
:10C6B000FBD54FF4007048600133ACE73E443C4486
:10C6C000B6B26AE7002001E04FF0FF3003B0BDE8EA
:10C6D000F08F00BF583D0020FFFF0F000000024018
:10C6E0004400024000040040723D002030B50028A4
:10C6F0004BD1482393FBF1F398B24B43C3F148036A
:10C70000B3EB510F244B4FF002011A68C8BF013040
:10C7100022F001021A60214A5960DA601C68C001E7
:10C7200044F001041C601E4B441CA4B29D8D9C85EA
:10C7300001249C825083002090839C82194BADB2CF
:10C74000186820F001001860596002F11A01D960E0
:10C75000196821431960144B19688C05FBD54FF4F7
:10C7600000715960114B10490868800401D4013BE5
:10C77000F9D14FF400504860094901208D85888225
:10C7800033B153880020138730BD4FF0FF3030BDE8
:10C790006FF0050030BD00BF44000240583D00204E
:10C7A000000400403000024000000240FFFF0F0084
:10C7B0002DE9F04704468EB0002840F0D980DFF81C
:10C7C000E0916E4DA9F8380001200146FCF776F89B
:10C7D00001210420FCF78AF82846FBF73FFD03A857
:10C7E000FBF7D1FD664B4FF080084FF480674FF4A4
:10C7F00000564FF4807A284603A9039305940694C3
:10C8000007940B940C960D94CDF82080CDF824A0BD
:10C810000A97FBF799FD01212846FBF7C1FD59480E
:10C82000FBF71CFD03A8FBF7AEFD574B554803A9CA
:10C8300003930594069407940B940C960D94CDF8ED
:10C840002080CDF824A00A97FBF77EFD01214D48FA
:10C85000FBF7A6FD6846FCF79DFC042602234B4827
:10C860006946ADF80430ADF80240ADF80640ADF8C9
:10C870000840ADF80060FCF700FF44485021FCF789
:10C8800026FD42483146FCF7BDFE40484146FCF7D4
:10C89000C4FE3E4839460122FCF7B6FC3B484FF443
:10C8A00000710122FCF7B0FC214601223748FCF759
:10C8B00003FD36480121FCF77EFC2B68344823F049
:10C8C00001032B600A236B60C5F80C902B680621CE
:10C8D00043F001032B60402343610322FDF7AEFFC9
:10C8E0002C4B4FF47A70D3F85042A047284D0621C4
:10C8F00038222846FDF7A2FF4FF4FA70A0474023E4
:10C900006B61284606210322FDF798FF013E4FF494
:10C91000FA70A04716F0FF06E8D104261C4D062148
:10C9200038222846FDF78AFFFA20A04740236B6192
:10C93000284606210322FDF781FF013EFA20A04789
:10C9400016F0FF06EAD1284606213822FDF776FFC9
:10C95000114B124A11688D0401D4013BF9D14FF4F7
:10C960000051002B51600CBF6FF00500002001E06A
:10C970004FF0FF300EB0BDE8F08700BF440002402A
:10C980003808004008000240340800400008004019
:10C99000000C014078580108FFFF0F000000024022
:10C9A000583D002038B5054640B9064B0120D3F864
:10C9B000F440A0471020A047284638BD4FF0FF3074
:10C9C00038BD00BFE05A010838B5054640B9064BEE
:10C9D0000120D3F8F840A0471020A047284638BDD2
:10C9E0004FF0FF3038BD00BFE05A01082DE9FF418C
:10C9F0008846154640BB174F0120D7F8FC4002A9D6
:10CA0000A04710B16FF0060020E010206946A04753
:10CA100006460028F6D1039B009A9A42F2D3029B65
:10CA2000019A9A42EED8D7F80841414645F00402EF
:10CA30000120A047009B4FF47A711020B3FBF1F165
:10CA40002A46A047304601E04FF0FF3004B0BDE871
:10CA5000F08100BFE05A0108F0B5059C00BB069DBF
:10CA6000EF08B8421AD01BB113F8016B0E4DAE811E
:10CA700011B111F8016B00E00E460C4DAE812E890C
:10CA80003606FCD41CB1084DAD8904F8015B1AB11F
:10CA9000064DAD8902F8015B0130E2E70020F0BDF0
:10CAA0004FF0FF30F0BD00BF0030014000380040C3
:10CAB000044B4FF480621978034B09B15A617047F7
:10CAC0001A617047923D0020000C0140F8B54FF408
:10CAD00000420B4B08B11A6100E05A61094B0A4D44
:10CAE000D3F850426888A0476888054E4FF4005735
:10CAF0004000376180B2A04777616888A047F8BDE1
:10CB0000000C014078580108923D0020002814BF15
:10CB10004FF0FF300020704710B50446A8B90C480C
:10CB20000A210422FDF78AFE09480D210422FDF79F
:10CB300085FE07480F210422FDF780FE04480E21E0
:10CB40000422FDF77BFE204610BD4FF0FF3010BDE4
:10CB5000000C0140F8B50D46064620BB134C144F9F
:10CB6000002D08BF01253A70FFF7A2FF20460A21D9
:10CB70000322FDF763FE4FF40053636120460D214D
:10CB80000322FDF75BFE20460F210322FDF756FE30
:10CB900020460E210422FDF751FEFA2393FBF5F502
:10CBA0007D803046F8BD4FF0FF30F8BD000C0140ED
:10CBB000923D00202DE9F3470B9D89469246984609
:10CBC0009DF8387000285CD1304E314833784FF4EE
:10CBD00080640BB1046100E044610120FFF776FF3F
:10CBE0000AF1FF34621C07D00120A04000EA0900CE
:10CBF000FFF76CFF013CF5E79DF8284014F1FF3486
:10CC000006D30120A04000EA0800FFF75FFFF5E728
:10CC10009DF8304014F1FF3405D30120A040284096
:10CC2000FFF754FFF6E7002301937C1E631C1ED020
:10CC3000184B7088D3F85052A8477088DFF850809E
:10CC40004FF400594000C8F8109080B2A847C8F8C7
:10CC50001490D8F808807088A84718F4804F04D042
:10CC60000122A240019B13430193013CDEE7FA1D20
:10CC700001A9D2080D98FDF765FCFFF719FF002008
:10CC800001E04FF0FF3002B0BDE8F087923D002098
:10CC9000000C01407858010838B50D461446E8B933
:10CCA000104B4FF4806219780F4B09B11A6109E0FB
:10CCB0005A6107E0013CA4B244B10C4B2846D3F8BA
:10CCC00050329847084B9B685904F3D5FFF7F0FEA4
:10CCD000002C0CBF6FF00500002038BD4FF0FF3076
:10CCE00038BD00BF923D0020000C0140785801087B
:10CCF00038B50B4C2388B3F5E16F0DD2A2785AB941
:10CD0000084D4FF48071D5F88830012098470120F4
:10CD1000AB6F082102469847A3780133A37038BD52
:10CD2000963D0020E05A010808B5074A93784BB1B8
:10CD3000013BDBB293702BB9044B01200821042284
:10CD40009B6F984708BD00BF963D0020E05A010840
:10CD500008B5034B9B7813B1FFF7E6FFF9E708BD71
:10CD6000963D0020014B9878704700BF963D00200B
:10CD700020B931B1044B1B880B8070474FF0FF3056
:10CD800070470846704700BF963D002070B50346C7
:10CD900000283DD1204CA688254616B1012E08D08A
:10CDA0002EE01E4B0821D3F84C319847A38801335D
:10CDB0002CE01A4C0821D4F8503198470646E8B9BF
:10CDC000D4F854310821984741F6C8135843C0F3AA
:10CDD0000F30B0F5E16F4FF400412880D4F888306F
:10CDE0008CBF32460A46304698472B88B3F5E16F30
:10CDF00001D2FFF7ADFFAB880133AB80002070BDDF
:10CE00000136B6B2B6F5804FA680F7D3A380F5E71A
:10CE10004FF0FF3070BD00BF963D0020E05A010882
:10CE200038B590BB1C4CA37803B9A37140F6E4431A
:10CE3000994207D1A37963B9174B01229A71FFF781
:10CE400057FF06E021BBA3791BB1134B9971FFF784
:10CE50007FFF124B0A20D3F84C329847A388012B4E
:10CE600003D80020FFF792FFF8E70A250023A380EC
:10CE7000A388012B03D80020FFF788FFF8E7013DC6
:10CE800015F0FF05F2D1284638BD4FF0FF3038BD10
:10CE90006FF0050038BD00BF963D002078580108AE
:10CEA00038B500240A4B9B68DB060FD4094D0A4BAA
:10CEB0002888D3F8503298472B881C446B88A4B23A
:10CEC000002BEFD09C42EDD3022038BD002038BDAE
:10CED000000C01409E3D00207858010838B5002420
:10CEE0000A4B9B685A040FD4094D0A4B2888D3F883
:10CEF000503298472B881C446B88A4B2002BEFD08B
:10CF00009C42EDD3022038BD002038BD000C01400A
:10CF10009E3D0020785801082DE9F041204E4FF445
:10CF2000804333611F4D204BA888D3F85042A0475F
:10CF300010233361FFF7B4FF10B10220BDE8F08188
:10CF4000FFF7CCFF80B9A888154E400080B2A047FB
:10CF5000A8884FF480434000736180B2A04710233B
:10CF600073610020BDE8F0810B270D4EB3685904B2
:10CF7000E9D4A8884FF01008400080B2A047A888E4
:10CF8000C6F81480400080B2A047C6F81080FFF7B2
:10CF900087FF0028D1D1013F17F0FF07E5D1CCE78B
:10CFA000000C01409E3D0020785801082DE9F04119
:10CFB000114B124C124E4FF01008D3F85052C4F8D7
:10CFC0001480B0884FF48047A8476761B088A847AD
:10CFD000C4F81080FFF764FF10B10220BDE8F081B3
:10CFE000B088400080B2A8472761FFF777FF00288C
:10CFF000F3D1BDE8F08100BF78580108000C014072
:10D000009E3D00202DE9F84381464FF00808254B4E
:10D01000254DD3F85042A888A04719F0800F234B24
:10D020004FF4804206D01A61FFF758FF18B1022072
:10D03000BDE8F8835A61A8881C4D10264FEA4909BB
:10D04000A0472E615FFA89F9174FFFF729FF0028E3
:10D05000EDD1B88808F1FF38400080B2A04718F041
:10D06000FF086E61D3D1B888A0474FF480432B618D
:10D07000B888A0472E61FFF713FF0028D7D1B888E2
:10D08000400080B2A047AB68F88813F4804F6E610F
:10D0900003D0A0470120BDE8F883A0474046BDE883
:10D0A000F88300BF785801089E3D0020000C014025
:10D0B00030B58508074C01D0A58003E00028FBD0DF
:10D0C0000120A08001B9012161802280E38000203D
:10D0D00030BD00BF9E3D00202DE9F041069C1F465B
:10D0E00000232380054688461646FFF715FF20B12A
:10D0F000FFF75CFF0320BDE8F08105F0FE00FFF7BD
:10D1000081FF0028F4D12288B24211D218F802001F
:10D11000FFF778FF0228054604D1FFF747FF2846AE
:10D12000BDE8F0812288012802F101022280EAD1C3
:10D13000012F01D1FFF73AFF2088B0422CBF002019
:10D140000120BDE8F0812DE9F04F85B00F9D164616
:10D1500003939DF8382000232B800446019102920E
:10D16000FFF7DAFE18B1FFF721FF032087E044F054
:10D170000100FFF747FF0028F5D12B88B34270D29A
:10D18000019F029A1F4442B106F1FF39B3EB090433
:10D19000D4F1000959EB040901E0DDF80890019A87
:10D1A0000021D154374B4FF4804119614FF0080AE8
:10D1B000354BDFF8D0B0D3F85042344B9888009309
:10D1C000400080B2A0471021CBF81010FFF768FE96
:10D1D000009B984600284FD198880AF1FF3A4000FA
:10D1E00080B2A0473B785B00DBB23B70DBF80810F5
:10D1F000DFF890B0480444BF43F001033B701023B4
:10D200001AF0FF0ACBF81430D2D1B8F80400A047C6
:10D2100019F0010F4FF4804305D0CBF81030FFF721
:10D220005DFE48BB01E0CBF81430B8F80400DFF82D
:10D2300054804FF0100AA047C8F810A0DFF84C90B7
:10D24000FFF72EFEC0B9B9F80400400080B2A04735
:10D25000C8F814A0B9F80600A0472B8801332B802A
:10D260008BE7039B012B01D1FFF7A0FE2888B0427A
:10D270002CBF0020012002E0FFF798FE022005B03D
:10D28000BDE8F08F000C0140785801089E3D002059
:10D2900008B5084B10221A614FF480421A61FFF75B
:10D2A000FFFD28B9FFF71AFE003018BF012008BDA6
:10D2B000012008BD000C0140FFF7EABF10B504468D
:10D2C00058B9074804210722FDF7B8FA04480E218F
:10D2D0000722FDF7B3FA204610BD4FF0FF3010BD16
:10D2E000000C014010B590B9FFF7D2FF04210028CF
:10D2F0000A46084814BF6FF005040024FDF79EFAA3
:10D3000004480E210422FDF799FA204610BD4FF083
:10D31000FF3010BD000C014010B514464FF47A7276
:10D3200092FBF1F170B90846012219462346FFF736
:10D33000BFFE50B9FFF7ACFF002814BF6FF0050027
:10D34000002010BD4FF0FF3010BD6FF0050010BD84
:10D350001FB5A8B99DF81C0000900DF10E000190BA
:10D36000C8B211461A469DF81830003318BF012381
:10D37000FFF7E9FE002814BF6FF00500002001E070
:10D380004FF0FF3005B05DF804FB1FB590B90DF10B
:10D390000E000090C8B211461A469DF818300033AE
:10D3A00018BF0123FFF798FE002814BF6FF0050097
:10D3B000002001E04FF0FF3005B05DF804FB00BF36
:10D3C00038B50A4C0B21204638224FF40055FDF7A2
:10D3D00035FA20460D2103226561FDF72FFA044B33
:10D3E0000120D3F84C329847256138BD000C01402C
:10D3F0007858010810B5064C0B2120463822FDF75D
:10D400001DFA20460D210422BDE81040FDF716BA92
:10D41000000C01402DE9F843264D274B4FF40056F0
:10D42000D3F850426E6180460020A0474FF4006759
:10D430002E610020A0470B21032228466F61FDF7D3
:10D44000FDF96E610020A0472E610020A0472F61EA
:10D4500000206E61A0472E610020A04728460B21C6
:10D460003822FDF7EBF908260025124F4FF400593A
:10D47000C7F814900020A047C7F810900020A047DC
:10D48000BB686D081B0548BF65F07F0506F1FF36D8
:10D4900048BFEDB216F0FF06E7D188F800504FF410
:10D4A00000557D613046A0473D613046A047BDE84C
:10D4B000F88300BF000C0140785801082DE9F843BB
:10D4C000244D254B4FF40056D3F850426E618146EF
:10D4D0000020A0472E610020A0474FF400632B617D
:10D4E0000B2103222846FDF7A9F96E610020A04711
:10D4F0002E610020A0476E610020A0472E61002011
:10D50000A0470825134F19F0010F4FF400634FF4A3
:10D51000005614BF3B617B6100207E61A047013D46
:10D520003E610020A04715F0FF05DFF828804FEA94
:10D530005909E7D140460B213822FDF77FF9C8F899
:10D5400014602846A047C8F810602846A047BDE8E8
:10D55000F88300BF000C0140785801082DE9F8431A
:10D56000334D344B4FF40056D3F8504280466E6131
:10D570000020A0472E610020A0474FF400630B213C
:10D5800003226B612846FDF759F96E610020A04720
:10D590002E610020A0476E610020A0472E61002070
:10D5A000A0476E610020A0472E610020A0476E6159
:10D5B0000020A0472E610020A04728460B213822DA
:10D5C000FDF73CF91A4D4FF400566E610020A0475C
:10D5D0002E610020A0470020A047AB681905F1D5B7
:10D5E00008250026124F4FF40059C7F81490002068
:10D5F000A047C7F810900020A047BB6876081A051E
:10D6000048BF66F07F0605F1FF3548BFF6B215F05A
:10D61000FF05E7D188F800604FF400567E61284688
:10D62000A0473E612846A0472846BDE8F88300BFD2
:10D63000000C0140785801082DE9F041314B324D82
:10D640004FF40056D3F850426E6107460020A047C1
:10D650004FF400682E610020A0470B2103222846CA
:10D66000C5F81080FDF7EAF86E610020A0472E6132
:10D670000020A047C5F8148000206E61A0472E61ED
:10D680000020A0476E610020A0472E610020A04727
:10D690006E610020A0472E610020A04708261A4D89
:10D6A00017F0010F4FF400634FF4005814BF2B61C3
:10D6B0006B610020C5F81480A047013EC5F81080BA
:10D6C0000020A04716F0FF064FEA5707E7D10E48A3
:10D6D0000B213822FDF7B2F80B4D4FF400566E6166
:10D6E0000020A0472E610020A047AB681805F3D5A5
:10D6F0006E610020A0472E610020A0470020BDE8F9
:10D70000F08100BF78580108000C014010B50446B4
:10D7100018B9FFF755FE204610BD4FF0FF3010BD81
:10D7200010B5044618B9FFF765FE204610BD4FF04E
:10D73000FF3010BD10B5044620B90846FFF7BEFE05
:10D74000204610BD4FF0FF3010BD10B5044620B983
:10D750000846FFF75FFE204610BD4FF0FF3010BDBA
:10D7600008B540B90846FFF7F9FE00280CBF0020B5
:10D770006FF0050008BD4FF0FF3008BD08B540B997
:10D780000878FFF759FF00280CBF00206FF0050054
:10D7900008BD4FF0FF3008BD70B54FF40063084C72
:10D7A00008B1236100E06361064B4FF40056266127
:10D7B000D3F850520020A84766610020A84770BDEA
:10D7C000000C014078580108F8B5084C084B4FF49C
:10D7D00000562661A768D3F850520020A84766611A
:10D7E0000020A847C7F3C020F8BD00BF000C0140CF
:10D7F000785801082DE9F04106460D4628480B21CE
:10D80000144603221F469DF81880FDF717F80120E3
:10D81000FFF7C2FF3046FFF7BFFF3846FFF7BCFFF8
:10D82000082605F08000013EFFF7B6FF6D0016F0F8
:10D83000FF06EDB2F5D1BFB119480B212822FCF744
:10D84000FDFF0A253446FFF7BFFF6400E4B2013D47
:10D85000204315F0FF05C4B2F5D111480B21032276
:10D86000FCF7ECFF01250BE0082504F08000013DEA
:10D87000FFF792FF640015F0FF05E4B2F5D1032530
:10D880004046013DFFF788FF15F0FF05F8D1044839
:10D890000B212822FCF7D2FF2046BDE8F08100BF13
:10D8A000000C014010B50A480B210322FCF7C6FF0B
:10D8B00016240020013CFFF76FFF14F0FF04F8D19D
:10D8C00003480B212822BDE81040FCF7B7BF00BF7A
:10D8D000000C01402DE9FF410C4600287BD1424E4F
:10D8E0000DF10E01D6F8D8309847002876D124B92A
:10D8F000BDF80E30B3F5E16F70D83C4D0B212846D2
:10D900000322FCF79BFF012C11D1FFF7F1F94FF433
:10D910008067D6F84C622046B04728460A21032289
:10D920002F61FCF78BFF2046B0476F6131E084BB6D
:10D93000DFF8BC8028460B212822FCF77FFF082156
:10D940000422D8F878700120B847D6F84C5201204C
:10D95000A847D8F8883022464FF4807101209847B4
:10D96000012008210246B8470520A8474FF47A74E1
:10D970001E4B9B681B0507D5013CA4B224B1D6F809
:10D9800050320A209847F3E718480B210322FCF78E
:10D9900055FF164D4FF4005300246B6128460D21AE
:10D9A0000322FCF74BFF502122462346009401201E
:10D9B000FFF720FFFFF776FFFFF774FFFFF772FF17
:10D9C000FFF770FFFFF76EFF28460B212822FCF7B8
:10D9D00035FF204604E04FF0FF3001E06FF0050016
:10D9E00004B0BDE8F08100BF78580108000C014088
:10D9F000E05A010870B50C46064628BB012915D12E
:10DA0000144D4FF480632B61134B0846D3F84C320E
:10DA1000984728460A213822FCF710FF28460D2196
:10DA20000422FCF70BFFFFF77FF910E079B90B4BED
:10DA300008219B6F04220120984706480D210422EB
:10DA4000FCF7FCFE204670BD4FF0FF3070BD304645
:10DA500070BD00BF000C014078580108E05A010871
:10DA600010B5002837D11E480B212822FCF7E6FE0E
:10DA7000FFF7AAFE64241A4B9B6819050BD4194BB7
:10DA8000013C0A20D3F85032A4B29847002CF2D1BE
:10DA90006FF0050010BD42F21074114883681A053A
:10DAA00009D5104B013C0A20D3F85032A4B2984754
:10DAB000002CF2D1ECE74FF4006343610B21032209
:10DAC000FCF7BCFE28240020013CFFF765FE14F0A3
:10DAD000FF04F8D102E04FF0FF3010BD204610BD2A
